{
  "contractName": "CampaignFactory",
  "abi": [
    {
      "constant": true,
      "inputs": [
        {
          "name": "",
          "type": "uint256"
        }
      ],
      "name": "campaigns",
      "outputs": [
        {
          "name": "",
          "type": "address"
        }
      ],
      "payable": false,
      "stateMutability": "view",
      "type": "function"
    },
    {
      "payable": true,
      "stateMutability": "payable",
      "type": "fallback"
    },
    {
      "constant": false,
      "inputs": [
        {
          "name": "_fundCall",
          "type": "uint256"
        },
        {
          "name": "_timeLock",
          "type": "uint256"
        }
      ],
      "name": "createCampaign",
      "outputs": [
        {
          "name": "",
          "type": "address"
        }
      ],
      "payable": false,
      "stateMutability": "nonpayable",
      "type": "function"
    },
    {
      "constant": true,
      "inputs": [],
      "name": "getAllCampaigns",
      "outputs": [
        {
          "name": "",
          "type": "address[]"
        }
      ],
      "payable": false,
      "stateMutability": "view",
      "type": "function"
    }
  ],
  "bytecode": "0x608060405234801561001057600080fd5b50610f07806100206000396000f300608060405260043610610057576000357c0100000000000000000000000000000000000000000000000000000000900463ffffffff168063141961bc1461005957806322502268146100c657806386cdf6041461013d575b005b34801561006557600080fd5b50610084600480360381019080803590602001909291905050506101a9565b604051808273ffffffffffffffffffffffffffffffffffffffff1673ffffffffffffffffffffffffffffffffffffffff16815260200191505060405180910390f35b3480156100d257600080fd5b506100fb60048036038101908080359060200190929190803590602001909291905050506101e7565b604051808273ffffffffffffffffffffffffffffffffffffffff1673ffffffffffffffffffffffffffffffffffffffff16815260200191505060405180910390f35b34801561014957600080fd5b506101526102c8565b6040518080602001828103825283818151815260200191508051906020019060200280838360005b8381101561019557808201518184015260208101905061017a565b505050509050019250505060405180910390f35b6000818154811015156101b857fe5b906000526020600020016000915054906101000a900473ffffffffffffffffffffffffffffffffffffffff1681565b6000803384846101f5610356565b808473ffffffffffffffffffffffffffffffffffffffff1673ffffffffffffffffffffffffffffffffffffffff1681526020018381526020018281526020019350505050604051809103906000f080158015610255573d6000803e3d6000fd5b50905060008190806001815401808255809150509060018203906000526020600020016000909192909190916101000a81548173ffffffffffffffffffffffffffffffffffffffff021916908373ffffffffffffffffffffffffffffffffffffffff160217905550508091505092915050565b6060600080548060200260200160405190810160405280929190818152602001828054801561034c57602002820191906000526020600020905b8160009054906101000a900473ffffffffffffffffffffffffffffffffffffffff1673ffffffffffffffffffffffffffffffffffffffff1681526020019060010190808311610302575b5050505050905090565b604051610b7580610367833901905600608060405234801561001057600080fd5b50604051606080610b7583398101806040528101908080519060200190929190805190602001909291908051906020019092919050505060008214158015610059575060008114155b151561006457600080fd5b826000806101000a81548173ffffffffffffffffffffffffffffffffffffffff021916908373ffffffffffffffffffffffffffffffffffffffff16021790555060018202600381905550600181024201600481905550505050610aa9806100cc6000396000f300608060405260043610610099576000357c0100000000000000000000000000000000000000000000000000000000900463ffffffff1680633ccfd60b1461009e578063590e1ae3146100b55780638da5cb5b146100cc578063ac62f56614610123578063ce845d1d14610190578063d085835a146101bb578063e25f8416146101e6578063ed88c68e1461029a578063fb704f72146102a4575b600080fd5b3480156100aa57600080fd5b506100b36102cf565b005b3480156100c157600080fd5b506100ca61051f565b005b3480156100d857600080fd5b506100e16106c7565b604051808273ffffffffffffffffffffffffffffffffffffffff1673ffffffffffffffffffffffffffffffffffffffff16815260200191505060405180910390f35b34801561012f57600080fd5b5061014e600480360381019080803590602001909291905050506106ec565b604051808273ffffffffffffffffffffffffffffffffffffffff1673ffffffffffffffffffffffffffffffffffffffff16815260200191505060405180910390f35b34801561019c57600080fd5b506101a561072a565b6040518082815260200191505060405180910390f35b3480156101c757600080fd5b506101d0610749565b6040518082815260200191505060405180910390f35b3480156101f257600080fd5b506101fb61074f565b604051808060200180602001838103835285818151815260200191508051906020019060200280838360005b83811015610242578082015181840152602081019050610227565b50505050905001838103825284818151815260200191508051906020019060200280838360005b83811015610284578082015181840152602081019050610269565b5050505090500194505050505060405180910390f35b6102a26108dc565b005b3480156102b057600080fd5b506102b96109f8565b6040518082815260200191505060405180910390f35b6000809054906101000a900473ffffffffffffffffffffffffffffffffffffffff1673ffffffffffffffffffffffffffffffffffffffff163373ffffffffffffffffffffffffffffffffffffffff16141515610393576040517f08c379a00000000000000000000000000000000000000000000000000000000081526004018080602001828103825260118152602001807f4f6e6c79206f776e65722063616e20646f00000000000000000000000000000081525060200191505060405180910390fd5b600454421015151561040d576040517f08c379a00000000000000000000000000000000000000000000000000000000081526004018080602001828103825260108152602001807f4d75737420656e6f7567682074696d650000000000000000000000000000000081525060200191505060405180910390fd5b6003543073ffffffffffffffffffffffffffffffffffffffff16311015151561049e576040517f08c379a00000000000000000000000000000000000000000000000000000000081526004018080602001828103825260148152602001807f4d75737420656e6f7567682066756e6443616c6c00000000000000000000000081525060200191505060405180910390fd5b6000809054906101000a900473ffffffffffffffffffffffffffffffffffffffff1673ffffffffffffffffffffffffffffffffffffffff166108fc3073ffffffffffffffffffffffffffffffffffffffff16319081150290604051600060405180830381858888f1935050505015801561051c573d6000803e3d6000fd5b50565b60008060009054906101000a900473ffffffffffffffffffffffffffffffffffffffff1673ffffffffffffffffffffffffffffffffffffffff163373ffffffffffffffffffffffffffffffffffffffff1614806105a2575060045442101580156105a157506003543073ffffffffffffffffffffffffffffffffffffffff1631105b5b15156105ad57600080fd5b600090505b6001805490508110156106c4576001818154811015156105ce57fe5b9060005260206000200160009054906101000a900473ffffffffffffffffffffffffffffffffffffffff1673ffffffffffffffffffffffffffffffffffffffff166108fc6002600060018581548110151561062557fe5b9060005260206000200160009054906101000a900473ffffffffffffffffffffffffffffffffffffffff1673ffffffffffffffffffffffffffffffffffffffff1673ffffffffffffffffffffffffffffffffffffffff168152602001908152602001600020549081150290604051600060405180830381858888f193505050501580156106b6573d6000803e3d6000fd5b5080806001019150506105b2565b50565b6000809054906101000a900473ffffffffffffffffffffffffffffffffffffffff1681565b6001818154811015156106fb57fe5b906000526020600020016000915054906101000a900473ffffffffffffffffffffffffffffffffffffffff1681565b60003073ffffffffffffffffffffffffffffffffffffffff1631905090565b60045481565b60608060006060600060018054905092508260405190808252806020026020018201604052801561078f5781602001602082028038833980820191505090505b509150600090505b60018054905081101561084657600260006001838154811015156107b757fe5b9060005260206000200160009054906101000a900473ffffffffffffffffffffffffffffffffffffffff1673ffffffffffffffffffffffffffffffffffffffff1673ffffffffffffffffffffffffffffffffffffffff16815260200190815260200160002054828281518110151561082b57fe5b90602001906020020181815250508080600101915050610797565b600182818054806020026020016040519081016040528092919081815260200182805480156108ca57602002820191906000526020600020905b8160009054906101000a900473ffffffffffffffffffffffffffffffffffffffff1673ffffffffffffffffffffffffffffffffffffffff1681526020019060010190808311610880575b50505050509150945094505050509091565b6000341115156108eb57600080fd5b6108f4336109fe565b1561094b5734600260003373ffffffffffffffffffffffffffffffffffffffff1673ffffffffffffffffffffffffffffffffffffffff168152602001908152602001600020600082825401925050819055506109f6565b60013390806001815401808255809150509060018203906000526020600020016000909192909190916101000a81548173ffffffffffffffffffffffffffffffffffffffff021916908373ffffffffffffffffffffffffffffffffffffffff1602179055505034600260003373ffffffffffffffffffffffffffffffffffffffff1673ffffffffffffffffffffffffffffffffffffffff168152602001908152602001600020819055505b565b60035481565b6000808273ffffffffffffffffffffffffffffffffffffffff1614158015610a6557506000600260008473ffffffffffffffffffffffffffffffffffffffff1673ffffffffffffffffffffffffffffffffffffffff16815260200190815260200160002054115b15610a735760019050610a78565b600090505b9190505600a165627a7a723058203d76c1ed278dba92e001db2a41f09f9ef2d8300612a7d5e0b0f8b793c4de25310029a165627a7a7230582001e021585ef7daa4a4073d3d427344dfb4973cbc1bc518bedff7d70b2c28d1d60029",
  "source": "pragma solidity ^0.4.21;\nimport \"./Campaign.sol\";\n\ncontract CampaignFactory {\n    address[] public campaigns;\n    function createCampaign(uint _fundCall, uint _timeLock) public returns(address){\n        address campaign = address(new Campaign(msg.sender, _fundCall, _timeLock));\n        campaigns.push(campaign);\n        return campaign;\n    }\n    \n    function getAllCampaigns() view public returns(address[]) {\n        return campaigns;\n    }\n    \n    function() payable public {}\n}\n",
  "sourcePath": "/home/tmc/workspace/Blockchain/kickstartv2/contracts/CampaignFactory.sol",
  "compiler": {
    "name": "solc",
    "version": "0.4.24+commit.e67f0147.Emscripten.clang"
  },
  "schemaVersion": "2.0.1",
  "updatedAt": "2018-09-12T01:46:15.286Z"
}