{
  "contractName": "Campaign",
  "abi": [
    {
      "constant": true,
      "inputs": [],
      "name": "owner",
      "outputs": [
        {
          "name": "",
          "type": "address"
        }
      ],
      "payable": false,
      "stateMutability": "view",
      "type": "function"
    },
    {
      "constant": true,
      "inputs": [
        {
          "name": "",
          "type": "uint256"
        }
      ],
      "name": "donators",
      "outputs": [
        {
          "name": "",
          "type": "address"
        }
      ],
      "payable": false,
      "stateMutability": "view",
      "type": "function"
    },
    {
      "constant": true,
      "inputs": [],
      "name": "timeLock",
      "outputs": [
        {
          "name": "",
          "type": "uint256"
        }
      ],
      "payable": false,
      "stateMutability": "view",
      "type": "function"
    },
    {
      "constant": true,
      "inputs": [],
      "name": "fundCall",
      "outputs": [
        {
          "name": "",
          "type": "uint256"
        }
      ],
      "payable": false,
      "stateMutability": "view",
      "type": "function"
    },
    {
      "inputs": [
        {
          "name": "_owner",
          "type": "address"
        },
        {
          "name": "_fundCall",
          "type": "uint256"
        },
        {
          "name": "_timeLock",
          "type": "uint256"
        }
      ],
      "payable": false,
      "stateMutability": "nonpayable",
      "type": "constructor"
    },
    {
      "constant": false,
      "inputs": [],
      "name": "donate",
      "outputs": [],
      "payable": true,
      "stateMutability": "payable",
      "type": "function"
    },
    {
      "constant": false,
      "inputs": [],
      "name": "withdraw",
      "outputs": [],
      "payable": false,
      "stateMutability": "nonpayable",
      "type": "function"
    },
    {
      "constant": true,
      "inputs": [],
      "name": "currentBalance",
      "outputs": [
        {
          "name": "",
          "type": "uint256"
        }
      ],
      "payable": false,
      "stateMutability": "view",
      "type": "function"
    },
    {
      "constant": true,
      "inputs": [],
      "name": "getDonations",
      "outputs": [
        {
          "name": "",
          "type": "address[]"
        },
        {
          "name": "",
          "type": "uint256[]"
        }
      ],
      "payable": false,
      "stateMutability": "view",
      "type": "function"
    },
    {
      "constant": false,
      "inputs": [],
      "name": "refund",
      "outputs": [],
      "payable": false,
      "stateMutability": "nonpayable",
      "type": "function"
    }
  ],
  "bytecode": "0x608060405234801561001057600080fd5b50604051606080610b7583398101806040528101908080519060200190929190805190602001909291908051906020019092919050505060008214158015610059575060008114155b151561006457600080fd5b826000806101000a81548173ffffffffffffffffffffffffffffffffffffffff021916908373ffffffffffffffffffffffffffffffffffffffff16021790555060018202600381905550600181024201600481905550505050610aa9806100cc6000396000f300608060405260043610610099576000357c0100000000000000000000000000000000000000000000000000000000900463ffffffff1680633ccfd60b1461009e578063590e1ae3146100b55780638da5cb5b146100cc578063ac62f56614610123578063ce845d1d14610190578063d085835a146101bb578063e25f8416146101e6578063ed88c68e1461029a578063fb704f72146102a4575b600080fd5b3480156100aa57600080fd5b506100b36102cf565b005b3480156100c157600080fd5b506100ca61051f565b005b3480156100d857600080fd5b506100e16106c7565b604051808273ffffffffffffffffffffffffffffffffffffffff1673ffffffffffffffffffffffffffffffffffffffff16815260200191505060405180910390f35b34801561012f57600080fd5b5061014e600480360381019080803590602001909291905050506106ec565b604051808273ffffffffffffffffffffffffffffffffffffffff1673ffffffffffffffffffffffffffffffffffffffff16815260200191505060405180910390f35b34801561019c57600080fd5b506101a561072a565b6040518082815260200191505060405180910390f35b3480156101c757600080fd5b506101d0610749565b6040518082815260200191505060405180910390f35b3480156101f257600080fd5b506101fb61074f565b604051808060200180602001838103835285818151815260200191508051906020019060200280838360005b83811015610242578082015181840152602081019050610227565b50505050905001838103825284818151815260200191508051906020019060200280838360005b83811015610284578082015181840152602081019050610269565b5050505090500194505050505060405180910390f35b6102a26108dc565b005b3480156102b057600080fd5b506102b96109f8565b6040518082815260200191505060405180910390f35b6000809054906101000a900473ffffffffffffffffffffffffffffffffffffffff1673ffffffffffffffffffffffffffffffffffffffff163373ffffffffffffffffffffffffffffffffffffffff16141515610393576040517f08c379a00000000000000000000000000000000000000000000000000000000081526004018080602001828103825260118152602001807f4f6e6c79206f776e65722063616e20646f00000000000000000000000000000081525060200191505060405180910390fd5b600454421015151561040d576040517f08c379a00000000000000000000000000000000000000000000000000000000081526004018080602001828103825260108152602001807f4d75737420656e6f7567682074696d650000000000000000000000000000000081525060200191505060405180910390fd5b6003543073ffffffffffffffffffffffffffffffffffffffff16311015151561049e576040517f08c379a00000000000000000000000000000000000000000000000000000000081526004018080602001828103825260148152602001807f4d75737420656e6f7567682066756e6443616c6c00000000000000000000000081525060200191505060405180910390fd5b6000809054906101000a900473ffffffffffffffffffffffffffffffffffffffff1673ffffffffffffffffffffffffffffffffffffffff166108fc3073ffffffffffffffffffffffffffffffffffffffff16319081150290604051600060405180830381858888f1935050505015801561051c573d6000803e3d6000fd5b50565b60008060009054906101000a900473ffffffffffffffffffffffffffffffffffffffff1673ffffffffffffffffffffffffffffffffffffffff163373ffffffffffffffffffffffffffffffffffffffff1614806105a2575060045442101580156105a157506003543073ffffffffffffffffffffffffffffffffffffffff1631105b5b15156105ad57600080fd5b600090505b6001805490508110156106c4576001818154811015156105ce57fe5b9060005260206000200160009054906101000a900473ffffffffffffffffffffffffffffffffffffffff1673ffffffffffffffffffffffffffffffffffffffff166108fc6002600060018581548110151561062557fe5b9060005260206000200160009054906101000a900473ffffffffffffffffffffffffffffffffffffffff1673ffffffffffffffffffffffffffffffffffffffff1673ffffffffffffffffffffffffffffffffffffffff168152602001908152602001600020549081150290604051600060405180830381858888f193505050501580156106b6573d6000803e3d6000fd5b5080806001019150506105b2565b50565b6000809054906101000a900473ffffffffffffffffffffffffffffffffffffffff1681565b6001818154811015156106fb57fe5b906000526020600020016000915054906101000a900473ffffffffffffffffffffffffffffffffffffffff1681565b60003073ffffffffffffffffffffffffffffffffffffffff1631905090565b60045481565b60608060006060600060018054905092508260405190808252806020026020018201604052801561078f5781602001602082028038833980820191505090505b509150600090505b60018054905081101561084657600260006001838154811015156107b757fe5b9060005260206000200160009054906101000a900473ffffffffffffffffffffffffffffffffffffffff1673ffffffffffffffffffffffffffffffffffffffff1673ffffffffffffffffffffffffffffffffffffffff16815260200190815260200160002054828281518110151561082b57fe5b90602001906020020181815250508080600101915050610797565b600182818054806020026020016040519081016040528092919081815260200182805480156108ca57602002820191906000526020600020905b8160009054906101000a900473ffffffffffffffffffffffffffffffffffffffff1673ffffffffffffffffffffffffffffffffffffffff1681526020019060010190808311610880575b50505050509150945094505050509091565b6000341115156108eb57600080fd5b6108f4336109fe565b1561094b5734600260003373ffffffffffffffffffffffffffffffffffffffff1673ffffffffffffffffffffffffffffffffffffffff168152602001908152602001600020600082825401925050819055506109f6565b60013390806001815401808255809150509060018203906000526020600020016000909192909190916101000a81548173ffffffffffffffffffffffffffffffffffffffff021916908373ffffffffffffffffffffffffffffffffffffffff1602179055505034600260003373ffffffffffffffffffffffffffffffffffffffff1673ffffffffffffffffffffffffffffffffffffffff168152602001908152602001600020819055505b565b60035481565b6000808273ffffffffffffffffffffffffffffffffffffffff1614158015610a6557506000600260008473ffffffffffffffffffffffffffffffffffffffff1673ffffffffffffffffffffffffffffffffffffffff16815260200190815260200160002054115b15610a735760019050610a78565b600090505b9190505600a165627a7a723058203d76c1ed278dba92e001db2a41f09f9ef2d8300612a7d5e0b0f8b793c4de25310029",
  "source": "pragma solidity ^0.4.21;\n\ncontract Campaign {\n    address public owner;\n    address[] public donators;\n    mapping(address => uint) donations;\n    uint public fundCall;\n    uint public timeLock;\n    \n    constructor(address _owner, uint _fundCall, uint _timeLock) public {\n        require(_fundCall != 0 && _timeLock != 0);\n        owner = _owner;\n        fundCall = _fundCall * 1 wei;\n        timeLock = now + _timeLock * 1 seconds;\n    }\n    \n    function donate() public payable {\n        require(msg.value > 0);\n        if(isDonator(msg.sender)) {\n            donations[msg.sender] += msg.value;\n        } else {\n            donators.push(msg.sender);\n            donations[msg.sender] = msg.value;\n        }\n    }\n    \n    function isDonator(address who) internal view returns(bool) {\n        if (who != 0x0 && donations[who] > 0) {\n            return true;\n        }\n        return false;\n    }\n    \n    function withdraw() public _onlyOnwner _campaignExpired _enoughFund{\n        // require(msg.sender == owner);\n        owner.transfer(address(this).balance);\n    }\n    \n    function currentBalance() view public returns(uint) {\n        return address(this).balance;\n    }\n    \n    function getDonations() public view returns(address[], uint[]) {\n        uint amountDonators = donators.length; \n        uint[] memory _donations = new uint[](amountDonators);\n        for(uint i = 0; i < donators.length; i ++) {\n            _donations[i] = (donations[address(donators[i])]);\n        }\n        return (donators, _donations);\n    }\n    \n    function refund() public  {\n        require(msg.sender == owner || (now >= timeLock && address(this).balance < fundCall));\n        for (uint i = 0; i < donators.length; i++) {\n            donators[i].transfer(donations[address(donators[i])]);\n        }\n    }\n    \n    modifier _onlyOnwner(){\n        require(msg.sender == owner, \"Only owner can do\");\n        _;\n    }\n    \n    modifier _campaignExpired() {\n        require(now >= timeLock, \"Must enough time\");\n        _;\n    }\n    \n    modifier _enoughFund() {\n        require(address(this).balance >= fundCall, \"Must enough fundCall\");\n        _;\n    }\n}",
  "sourcePath": "/home/tmc/workspace/Blockchain/kickstartv2/contracts/Campaign.sol",
  "compiler": {
    "name": "solc",
    "version": "0.4.24+commit.e67f0147.Emscripten.clang"
  },
  "schemaVersion": "2.0.1",
  "updatedAt": "2018-09-12T01:44:31.127Z"
}