{
  "contractName": "Campaign",
  "abi": [
    {
      "constant": true,
      "inputs": [],
      "name": "owner",
      "outputs": [
        {
          "name": "",
          "type": "address"
        }
      ],
      "payable": false,
      "stateMutability": "view",
      "type": "function"
    },
    {
      "constant": true,
      "inputs": [
        {
          "name": "",
          "type": "uint256"
        }
      ],
      "name": "donators",
      "outputs": [
        {
          "name": "",
          "type": "address"
        }
      ],
      "payable": false,
      "stateMutability": "view",
      "type": "function"
    },
    {
      "inputs": [
        {
          "name": "_owner",
          "type": "address"
        }
      ],
      "payable": false,
      "stateMutability": "nonpayable",
      "type": "constructor"
    },
    {
      "payable": true,
      "stateMutability": "payable",
      "type": "fallback"
    },
    {
      "constant": false,
      "inputs": [],
      "name": "donate",
      "outputs": [],
      "payable": true,
      "stateMutability": "payable",
      "type": "function"
    },
    {
      "constant": false,
      "inputs": [],
      "name": "withdraw",
      "outputs": [],
      "payable": false,
      "stateMutability": "nonpayable",
      "type": "function"
    },
    {
      "constant": true,
      "inputs": [],
      "name": "balanceCampaign",
      "outputs": [
        {
          "name": "",
          "type": "uint256"
        }
      ],
      "payable": false,
      "stateMutability": "view",
      "type": "function"
    }
  ],
  "bytecode": "0x608060405234801561001057600080fd5b5060405160208061052783398101806040528101908080519060200190929190505050806000806101000a81548173ffffffffffffffffffffffffffffffffffffffff021916908373ffffffffffffffffffffffffffffffffffffffff160217905550506104a4806100836000396000f30060806040526004361061006d576000357c0100000000000000000000000000000000000000000000000000000000900463ffffffff1680633ccfd60b1461006f5780638da5cb5b14610086578063ac62f566146100dd578063e30453511461014a578063ed88c68e14610175575b005b34801561007b57600080fd5b5061008461017f565b005b34801561009257600080fd5b5061009b61025b565b604051808273ffffffffffffffffffffffffffffffffffffffff1673ffffffffffffffffffffffffffffffffffffffff16815260200191505060405180910390f35b3480156100e957600080fd5b5061010860048036038101908080359060200190929190505050610280565b604051808273ffffffffffffffffffffffffffffffffffffffff1673ffffffffffffffffffffffffffffffffffffffff16815260200191505060405180910390f35b34801561015657600080fd5b5061015f6102be565b6040518082815260200191505060405180910390f35b61017d6102dd565b005b6000809054906101000a900473ffffffffffffffffffffffffffffffffffffffff1673ffffffffffffffffffffffffffffffffffffffff163373ffffffffffffffffffffffffffffffffffffffff161415156101da57600080fd5b6000809054906101000a900473ffffffffffffffffffffffffffffffffffffffff1673ffffffffffffffffffffffffffffffffffffffff166108fc3073ffffffffffffffffffffffffffffffffffffffff16319081150290604051600060405180830381858888f19350505050158015610258573d6000803e3d6000fd5b50565b6000809054906101000a900473ffffffffffffffffffffffffffffffffffffffff1681565b60018181548110151561028f57fe5b906000526020600020016000915054906101000a900473ffffffffffffffffffffffffffffffffffffffff1681565b60003073ffffffffffffffffffffffffffffffffffffffff1631905090565b6000341115156102ec57600080fd5b6102f5336103f9565b1561034c5734600260003373ffffffffffffffffffffffffffffffffffffffff1673ffffffffffffffffffffffffffffffffffffffff168152602001908152602001600020600082825401925050819055506103f7565b60013390806001815401808255809150509060018203906000526020600020016000909192909190916101000a81548173ffffffffffffffffffffffffffffffffffffffff021916908373ffffffffffffffffffffffffffffffffffffffff1602179055505034600260003373ffffffffffffffffffffffffffffffffffffffff1673ffffffffffffffffffffffffffffffffffffffff168152602001908152602001600020819055505b565b6000808273ffffffffffffffffffffffffffffffffffffffff161415801561046057506000600260008473ffffffffffffffffffffffffffffffffffffffff1673ffffffffffffffffffffffffffffffffffffffff16815260200190815260200160002054115b1561046e5760019050610473565b600090505b9190505600a165627a7a72305820f381d06365ebf5809159d835eb3797b99b15a9f9c08149327d2e04b62160a80e0029",
  "source": "pragma solidity ^0.4.21;\n\ncontract Campaign {\n    address public owner;\n    address[] public donators;\n    mapping(address => uint) donations;\n    constructor(address _owner) public {\n        owner = _owner;\n    }\n    \n    function donate() public payable {\n        require(msg.value > 0);\n        if(isDonator(msg.sender)) {\n            donations[msg.sender] += msg.value;\n        } else {\n            donators.push(msg.sender);\n            donations[msg.sender] = msg.value;\n        }\n    }\n    \n    function isDonator(address who) internal view returns(bool) {\n        if (who != 0x0 && donations[who] > 0) {\n            return true;\n        }\n        return false;\n    }\n    \n    function withdraw() public {\n        require(msg.sender == owner);\n        owner.transfer(address(this).balance);\n    }\n    \n    function balanceCampaign() view public returns(uint) {\n        return address(this).balance;\n    }\n    \n    function() payable public {}\n}",
  "sourcePath": "/home/tmc/workspace/Blockchain/kickstartv2/contracts/Campaign.sol",
  "compiler": {
    "name": "solc",
    "version": "0.4.24+commit.e67f0147.Emscripten.clang"
  },
  "schemaVersion": "2.0.1",
  "updatedAt": "2018-09-07T03:13:03.758Z"
}